{
  "contractName": "PermittableToken",
  "abi": [
    {
      "constant": true,
      "inputs": [],
      "name": "mintingFinished",
      "outputs": [
        {
          "name": "",
          "type": "bool"
        }
      ],
      "payable": false,
      "stateMutability": "view",
      "type": "function"
    },
    {
      "constant": true,
      "inputs": [],
      "name": "name",
      "outputs": [
        {
          "name": "",
          "type": "string"
        }
      ],
      "payable": false,
      "stateMutability": "view",
      "type": "function"
    },
    {
      "constant": false,
      "inputs": [
        {
          "name": "_bridgeContract",
          "type": "address"
        }
      ],
      "name": "setBridgeContract",
      "outputs": [],
      "payable": false,
      "stateMutability": "nonpayable",
      "type": "function"
    },
    {
      "constant": true,
      "inputs": [],
      "name": "totalSupply",
      "outputs": [
        {
          "name": "",
          "type": "uint256"
        }
      ],
      "payable": false,
      "stateMutability": "view",
      "type": "function"
    },
    {
      "constant": true,
      "inputs": [],
      "name": "PERMIT_TYPEHASH",
      "outputs": [
        {
          "name": "",
          "type": "bytes32"
        }
      ],
      "payable": false,
      "stateMutability": "view",
      "type": "function"
    },
    {
      "constant": true,
      "inputs": [],
      "name": "decimals",
      "outputs": [
        {
          "name": "",
          "type": "uint8"
        }
      ],
      "payable": false,
      "stateMutability": "view",
      "type": "function"
    },
    {
      "constant": true,
      "inputs": [],
      "name": "DOMAIN_SEPARATOR",
      "outputs": [
        {
          "name": "",
          "type": "bytes32"
        }
      ],
      "payable": false,
      "stateMutability": "view",
      "type": "function"
    },
    {
      "constant": false,
      "inputs": [
        {
          "name": "_to",
          "type": "address"
        },
        {
          "name": "_value",
          "type": "uint256"
        },
        {
          "name": "_data",
          "type": "bytes"
        }
      ],
      "name": "transferAndCall",
      "outputs": [
        {
          "name": "",
          "type": "bool"
        }
      ],
      "payable": false,
      "stateMutability": "nonpayable",
      "type": "function"
    },
    {
      "constant": false,
      "inputs": [
        {
          "name": "_to",
          "type": "address"
        },
        {
          "name": "_amount",
          "type": "uint256"
        }
      ],
      "name": "mint",
      "outputs": [
        {
          "name": "",
          "type": "bool"
        }
      ],
      "payable": false,
      "stateMutability": "nonpayable",
      "type": "function"
    },
    {
      "constant": false,
      "inputs": [
        {
          "name": "_value",
          "type": "uint256"
        }
      ],
      "name": "burn",
      "outputs": [],
      "payable": false,
      "stateMutability": "nonpayable",
      "type": "function"
    },
    {
      "constant": true,
      "inputs": [],
      "name": "version",
      "outputs": [
        {
          "name": "",
          "type": "string"
        }
      ],
      "payable": false,
      "stateMutability": "view",
      "type": "function"
    },
    {
      "constant": false,
      "inputs": [
        {
          "name": "_spender",
          "type": "address"
        },
        {
          "name": "_subtractedValue",
          "type": "uint256"
        }
      ],
      "name": "decreaseApproval",
      "outputs": [
        {
          "name": "",
          "type": "bool"
        }
      ],
      "payable": false,
      "stateMutability": "nonpayable",
      "type": "function"
    },
    {
      "constant": false,
      "inputs": [
        {
          "name": "_token",
          "type": "address"
        },
        {
          "name": "_to",
          "type": "address"
        }
      ],
      "name": "claimTokens",
      "outputs": [],
      "payable": false,
      "stateMutability": "nonpayable",
      "type": "function"
    },
    {
      "constant": true,
      "inputs": [
        {
          "name": "_owner",
          "type": "address"
        }
      ],
      "name": "balanceOf",
      "outputs": [
        {
          "name": "",
          "type": "uint256"
        }
      ],
      "payable": false,
      "stateMutability": "view",
      "type": "function"
    },
    {
      "constant": false,
      "inputs": [],
      "name": "renounceOwnership",
      "outputs": [],
      "payable": false,
      "stateMutability": "nonpayable",
      "type": "function"
    },
    {
      "constant": true,
      "inputs": [
        {
          "name": "_address",
          "type": "address"
        }
      ],
      "name": "isBridge",
      "outputs": [
        {
          "name": "",
          "type": "bool"
        }
      ],
      "payable": false,
      "stateMutability": "view",
      "type": "function"
    },
    {
      "constant": false,
      "inputs": [],
      "name": "finishMinting",
      "outputs": [
        {
          "name": "",
          "type": "bool"
        }
      ],
      "payable": false,
      "stateMutability": "nonpayable",
      "type": "function"
    },
    {
      "constant": true,
      "inputs": [
        {
          "name": "",
          "type": "address"
        }
      ],
      "name": "nonces",
      "outputs": [
        {
          "name": "",
          "type": "uint256"
        }
      ],
      "payable": false,
      "stateMutability": "view",
      "type": "function"
    },
    {
      "constant": true,
      "inputs": [],
      "name": "getTokenInterfacesVersion",
      "outputs": [
        {
          "name": "major",
          "type": "uint64"
        },
        {
          "name": "minor",
          "type": "uint64"
        },
        {
          "name": "patch",
          "type": "uint64"
        }
      ],
      "payable": false,
      "stateMutability": "pure",
      "type": "function"
    },
    {
      "constant": true,
      "inputs": [],
      "name": "owner",
      "outputs": [
        {
          "name": "",
          "type": "address"
        }
      ],
      "payable": false,
      "stateMutability": "view",
      "type": "function"
    },
    {
      "constant": true,
      "inputs": [],
      "name": "symbol",
      "outputs": [
        {
          "name": "",
          "type": "string"
        }
      ],
      "payable": false,
      "stateMutability": "view",
      "type": "function"
    },
    {
      "constant": false,
      "inputs": [
        {
          "name": "spender",
          "type": "address"
        },
        {
          "name": "subtractedValue",
          "type": "uint256"
        }
      ],
      "name": "decreaseAllowance",
      "outputs": [
        {
          "name": "",
          "type": "bool"
        }
      ],
      "payable": false,
      "stateMutability": "nonpayable",
      "type": "function"
    },
    {
      "constant": false,
      "inputs": [
        {
          "name": "_to",
          "type": "address"
        },
        {
          "name": "_value",
          "type": "uint256"
        }
      ],
      "name": "transfer",
      "outputs": [
        {
          "name": "",
          "type": "bool"
        }
      ],
      "payable": false,
      "stateMutability": "nonpayable",
      "type": "function"
    },
    {
      "constant": true,
      "inputs": [],
      "name": "bridgeContract",
      "outputs": [
        {
          "name": "",
          "type": "address"
        }
      ],
      "payable": false,
      "stateMutability": "view",
      "type": "function"
    },
    {
      "constant": false,
      "inputs": [
        {
          "name": "_spender",
          "type": "address"
        },
        {
          "name": "_addedValue",
          "type": "uint256"
        }
      ],
      "name": "increaseApproval",
      "outputs": [
        {
          "name": "",
          "type": "bool"
        }
      ],
      "payable": false,
      "stateMutability": "nonpayable",
      "type": "function"
    },
    {
      "constant": true,
      "inputs": [
        {
          "name": "_owner",
          "type": "address"
        },
        {
          "name": "_spender",
          "type": "address"
        }
      ],
      "name": "allowance",
      "outputs": [
        {
          "name": "",
          "type": "uint256"
        }
      ],
      "payable": false,
      "stateMutability": "view",
      "type": "function"
    },
    {
      "constant": false,
      "inputs": [
        {
          "name": "_newOwner",
          "type": "address"
        }
      ],
      "name": "transferOwnership",
      "outputs": [],
      "payable": false,
      "stateMutability": "nonpayable",
      "type": "function"
    },
    {
      "constant": true,
      "inputs": [
        {
          "name": "",
          "type": "address"
        },
        {
          "name": "",
          "type": "address"
        }
      ],
      "name": "expirations",
      "outputs": [
        {
          "name": "",
          "type": "uint256"
        }
      ],
      "payable": false,
      "stateMutability": "view",
      "type": "function"
    },
    {
      "inputs": [
        {
          "name": "_name",
          "type": "string"
        },
        {
          "name": "_symbol",
          "type": "string"
        },
        {
          "name": "_decimals",
          "type": "uint8"
        },
        {
          "name": "_chainId",
          "type": "uint256"
        }
      ],
      "payable": false,
      "stateMutability": "nonpayable",
      "type": "constructor"
    },
    {
      "anonymous": false,
      "inputs": [
        {
          "indexed": true,
          "name": "to",
          "type": "address"
        },
        {
          "indexed": false,
          "name": "amount",
          "type": "uint256"
        }
      ],
      "name": "Mint",
      "type": "event"
    },
    {
      "anonymous": false,
      "inputs": [],
      "name": "MintFinished",
      "type": "event"
    },
    {
      "anonymous": false,
      "inputs": [
        {
          "indexed": true,
          "name": "previousOwner",
          "type": "address"
        }
      ],
      "name": "OwnershipRenounced",
      "type": "event"
    },
    {
      "anonymous": false,
      "inputs": [
        {
          "indexed": true,
          "name": "previousOwner",
          "type": "address"
        },
        {
          "indexed": true,
          "name": "newOwner",
          "type": "address"
        }
      ],
      "name": "OwnershipTransferred",
      "type": "event"
    },
    {
      "anonymous": false,
      "inputs": [
        {
          "indexed": true,
          "name": "burner",
          "type": "address"
        },
        {
          "indexed": false,
          "name": "value",
          "type": "uint256"
        }
      ],
      "name": "Burn",
      "type": "event"
    },
    {
      "anonymous": false,
      "inputs": [
        {
          "indexed": true,
          "name": "from",
          "type": "address"
        },
        {
          "indexed": true,
          "name": "to",
          "type": "address"
        },
        {
          "indexed": false,
          "name": "value",
          "type": "uint256"
        },
        {
          "indexed": false,
          "name": "data",
          "type": "bytes"
        }
      ],
      "name": "Transfer",
      "type": "event"
    },
    {
      "anonymous": false,
      "inputs": [
        {
          "indexed": true,
          "name": "owner",
          "type": "address"
        },
        {
          "indexed": true,
          "name": "spender",
          "type": "address"
        },
        {
          "indexed": false,
          "name": "value",
          "type": "uint256"
        }
      ],
      "name": "Approval",
      "type": "event"
    },
    {
      "anonymous": false,
      "inputs": [
        {
          "indexed": true,
          "name": "from",
          "type": "address"
        },
        {
          "indexed": true,
          "name": "to",
          "type": "address"
        },
        {
          "indexed": false,
          "name": "value",
          "type": "uint256"
        }
      ],
      "name": "Transfer",
      "type": "event"
    },
    {
      "constant": false,
      "inputs": [
        {
          "name": "_sender",
          "type": "address"
        },
        {
          "name": "_recipient",
          "type": "address"
        },
        {
          "name": "_amount",
          "type": "uint256"
        }
      ],
      "name": "transferFrom",
      "outputs": [
        {
          "name": "",
          "type": "bool"
        }
      ],
      "payable": false,
      "stateMutability": "nonpayable",
      "type": "function"
    },
    {
      "constant": false,
      "inputs": [
        {
          "name": "_to",
          "type": "address"
        },
        {
          "name": "_value",
          "type": "uint256"
        }
      ],
      "name": "approve",
      "outputs": [
        {
          "name": "result",
          "type": "bool"
        }
      ],
      "payable": false,
      "stateMutability": "nonpayable",
      "type": "function"
    },
    {
      "constant": false,
      "inputs": [
        {
          "name": "_to",
          "type": "address"
        },
        {
          "name": "_addedValue",
          "type": "uint256"
        }
      ],
      "name": "increaseAllowance",
      "outputs": [
        {
          "name": "result",
          "type": "bool"
        }
      ],
      "payable": false,
      "stateMutability": "nonpayable",
      "type": "function"
    },
    {
      "constant": false,
      "inputs": [
        {
          "name": "_to",
          "type": "address"
        },
        {
          "name": "_amount",
          "type": "uint256"
        }
      ],
      "name": "push",
      "outputs": [],
      "payable": false,
      "stateMutability": "nonpayable",
      "type": "function"
    },
    {
      "constant": false,
      "inputs": [
        {
          "name": "_from",
          "type": "address"
        },
        {
          "name": "_amount",
          "type": "uint256"
        }
      ],
      "name": "pull",
      "outputs": [],
      "payable": false,
      "stateMutability": "nonpayable",
      "type": "function"
    },
    {
      "constant": false,
      "inputs": [
        {
          "name": "_from",
          "type": "address"
        },
        {
          "name": "_to",
          "type": "address"
        },
        {
          "name": "_amount",
          "type": "uint256"
        }
      ],
      "name": "move",
      "outputs": [],
      "payable": false,
      "stateMutability": "nonpayable",
      "type": "function"
    },
    {
      "constant": false,
      "inputs": [
        {
          "name": "_holder",
          "type": "address"
        },
        {
          "name": "_spender",
          "type": "address"
        },
        {
          "name": "_nonce",
          "type": "uint256"
        },
        {
          "name": "_expiry",
          "type": "uint256"
        },
        {
          "name": "_allowed",
          "type": "bool"
        },
        {
          "name": "_v",
          "type": "uint8"
        },
        {
          "name": "_r",
          "type": "bytes32"
        },
        {
          "name": "_s",
          "type": "bytes32"
        }
      ],
      "name": "permit",
      "outputs": [],
      "payable": false,
      "stateMutability": "nonpayable",
      "type": "function"
    }
  ],
  "bytecode": "0x60806040526006805460a060020a60ff02191690553480156200002157600080fd5b5060405162001e2e38038062001e2e83398101604090815281516020808401519284015160608501519285018051909594909401939092918591859185918491849184916200007691600091860190620002d0565b5081516200008c906001906020850190620002d0565b506002805460ff90921660ff19909216919091179055505060068054600160a060020a03191633179055505050801515620000c657600080fd5b60405180807f454950373132446f6d61696e28737472696e67206e616d652c737472696e672081526020017f76657273696f6e2c75696e7432353620636861696e49642c616464726573732081526020017f766572696679696e67436f6e747261637429000000000000000000000000000081525060520190506040518091039020846040518082805190602001908083835b602083106200017a5780518252601f19909201916020918201910162000159565b51815160209384036101000a600019018019909216911617905260408051929094018290038220828501855260018084527f3100000000000000000000000000000000000000000000000000000000000000928401928352945190965091945090928392508083835b60208310620002045780518252601f199092019160209182019101620001e3565b51815160209384036101000a6000190180199092169116179052604080519290940182900382208282019890985281840196909652606081019690965250608085018690523060a0808701919091528151808703909101815260c09095019081905284519093849350850191508083835b60208310620002965780518252601f19909201916020918201910162000275565b5181516020939093036101000a60001901801990911692169190911790526040519201829003909120600855506200037595505050505050565b828054600181600116156101000203166002900490600052602060002090601f016020900481019282601f106200031357805160ff191683800117855562000343565b8280016001018555821562000343579182015b828111156200034357825182559160200191906001019062000326565b506200035192915062000355565b5090565b6200037291905b808211156200035157600081556001016200035c565b90565b611aa980620003856000396000f30060806040526004361061019d5763ffffffff60e060020a60003504166305d2035b81146101a257806306fdde03146101cb578063095ea7b3146102555780630b26cf661461027957806318160ddd1461029c57806323b872dd146102c357806330adf81f146102ed578063313ce567146103025780633644e5151461032d57806339509351146103425780634000aea01461036657806340c10f191461039757806342966c68146103bb57806354fd4d50146103d357806366188463146103e857806369ffa08a1461040c57806370a0823114610433578063715018a614610454578063726600ce146104695780637d64bcb41461048a5780637ecebe001461049f578063859ba28c146104c05780638da5cb5b146105015780638fcbaf0c1461053257806395d89b4114610570578063a457c2d714610585578063a9059cbb146105a9578063b753a98c146105cd578063bb35783b146105f1578063cd5965831461061b578063d73dd62314610630578063dd62ed3e14610654578063f2d5d56b1461067b578063f2fde38b1461069f578063ff9e884d146106c0575b600080fd5b3480156101ae57600080fd5b506101b76106e7565b604080519115158252519081900360200190f35b3480156101d757600080fd5b506101e0610708565b6040805160208082528351818301528351919283929083019185019080838360005b8381101561021a578181015183820152602001610202565b50505050905090810190601f1680156102475780820380516001836020036101000a031916815260200191505b509250505060405180910390f35b34801561026157600080fd5b506101b7600160a060020a0360043516602435610796565b34801561028557600080fd5b5061029a600160a060020a03600435166107d9565b005b3480156102a857600080fd5b506102b1610833565b60408051918252519081900360200190f35b3480156102cf57600080fd5b506101b7600160a060020a0360043581169060243516604435610839565b3480156102f957600080fd5b506102b1610a08565b34801561030e57600080fd5b50610317610a2c565b6040805160ff9092168252519081900360200190f35b34801561033957600080fd5b506102b1610a35565b34801561034e57600080fd5b506101b7600160a060020a0360043516602435610a3b565b34801561037257600080fd5b506101b760048035600160a060020a0316906024803591604435918201910135610aa1565b3480156103a357600080fd5b506101b7600160a060020a0360043516602435610bb2565b3480156103c757600080fd5b5061029a600435610cbd565b3480156103df57600080fd5b506101e0610cca565b3480156103f457600080fd5b506101b7600160a060020a0360043516602435610d01565b34801561041857600080fd5b5061029a600160a060020a0360043581169060243516610dde565b34801561043f57600080fd5b506102b1600160a060020a0360043516610e03565b34801561046057600080fd5b5061029a610e1e565b34801561047557600080fd5b506101b7600160a060020a0360043516610e35565b34801561049657600080fd5b506101b7610e49565b3480156104ab57600080fd5b506102b1600160a060020a0360043516610e50565b3480156104cc57600080fd5b506104d5610e62565b6040805167ffffffffffffffff9485168152928416602084015292168183015290519081900360600190f35b34801561050d57600080fd5b50610516610e6d565b60408051600160a060020a039092168252519081900360200190f35b34801561053e57600080fd5b5061029a600160a060020a0360043581169060243516604435606435608435151560ff60a4351660c43560e435610e7c565b34801561057c57600080fd5b506101e06111d0565b34801561059157600080fd5b506101b7600160a060020a036004351660243561122a565b3480156105b557600080fd5b506101b7600160a060020a036004351660243561123d565b3480156105d957600080fd5b5061029a600160a060020a0360043516602435611268565b3480156105fd57600080fd5b5061029a600160a060020a0360043581169060243516604435611278565b34801561062757600080fd5b50610516611289565b34801561063c57600080fd5b506101b7600160a060020a0360043516602435611298565b34801561066057600080fd5b506102b1600160a060020a036004358116906024351661131f565b34801561068757600080fd5b5061029a600160a060020a036004351660243561134a565b3480156106ab57600080fd5b5061029a600160a060020a0360043516611355565b3480156106cc57600080fd5b506102b1600160a060020a0360043581169060243516611375565b60065474010000000000000000000000000000000000000000900460ff1681565b6000805460408051602060026001851615610100026000190190941693909304601f8101849004840282018401909252818152929183018282801561078e5780601f106107635761010080835404028352916020019161078e565b820191906000526020600020905b81548152906001019060200180831161077157829003601f168201915b505050505081565b60006107a28383611392565b90506000198214156107d357336000908152600a60209081526040808320600160a060020a03871684529091528120555b92915050565b600654600160a060020a031633146107f057600080fd5b6107f9816113e6565b151561080457600080fd5b6007805473ffffffffffffffffffffffffffffffffffffffff1916600160a060020a0392909216919091179055565b60045490565b600080600160a060020a038516151561085157600080fd5b600160a060020a038416151561086657600080fd5b600160a060020a03851660009081526003602052604090205461088f908463ffffffff6113ee16565b600160a060020a0380871660009081526003602052604080822093909355908616815220546108c4908463ffffffff61140016565b600160a060020a038086166000818152600360209081526040918290209490945580518781529051919392891692600080516020611a3e83398151915292918290030190a3600160a060020a03851633146109f257610923853361131f565b9050600019811461098d5761093e818463ffffffff6113ee16565b600160a060020a038616600081815260056020908152604080832033808552908352928190208590558051948552519193600080516020611a5e833981519152929081900390910190a36109f2565b600160a060020a0385166000908152600a6020908152604080832033845290915290205415806109e757506109c061140d565b600160a060020a0386166000908152600a6020908152604080832033845290915290205410155b15156109f257600080fd5b6109fd858585611411565b506001949350505050565b7fea2aa0a1be11a07ed86d755c93467f4f82362b452371d1ba94d1715123511acb81565b60025460ff1681565b60085481565b6000610a478383611448565b336000908152600560209081526040808320600160a060020a038816845290915290205490915060001914156107d357336000908152600a60209081526040808320600160a060020a038716845290915281205592915050565b600084600160a060020a03811615801590610ac55750600160a060020a0381163014155b1515610ad057600080fd5b610ada8686611454565b1515610ae557600080fd5b85600160a060020a031633600160a060020a03167fe19260aff97b920c7df27010903aeb9c8d2be5d310a2c67824cf3f15396e4c16878787604051808481526020018060200182810382528484828181526020019250808284376040519201829003965090945050505050a3610b5a866113e6565b15610ba657610b9b33878787878080601f01602080910402602001604051908101604052809392919081815260200183838082843750611460945050505050565b1515610ba657600080fd5b50600195945050505050565b600654600090600160a060020a03163314610bcc57600080fd5b60065474010000000000000000000000000000000000000000900460ff1615610bf457600080fd5b600454610c07908363ffffffff61140016565b600455600160a060020a038316600090815260036020526040902054610c33908363ffffffff61140016565b600160a060020a038416600081815260036020908152604091829020939093558051858152905191927f0f6798a560793a54c3bcfe86a93cde1e73087d944c0ea20544137d412139688592918290030190a2604080518381529051600160a060020a03851691600091600080516020611a3e8339815191529181900360200190a350600192915050565b610cc733826115dd565b50565b60408051808201909152600181527f3100000000000000000000000000000000000000000000000000000000000000602082015281565b336000908152600560209081526040808320600160a060020a0386168452909152812054808310610d5557336000908152600560209081526040808320600160a060020a0388168452909152812055610d8a565b610d65818463ffffffff6113ee16565b336000908152600560209081526040808320600160a060020a03891684529091529020555b336000818152600560209081526040808320600160a060020a038916808552908352928190205481519081529051929392600080516020611a5e833981519152929181900390910190a35060019392505050565b600654600160a060020a03163314610df557600080fd5b610dff82826116cc565b5050565b600160a060020a031660009081526003602052604090205490565b600654600160a060020a0316331461019d57600080fd5b600754600160a060020a0390811691161490565b6000806000fd5b60096020526000908152604090205481565b600260046000909192565b600654600160a060020a031681565b600080600160a060020a038a161515610e9457600080fd5b600160a060020a0389161515610ea957600080fd5b861580610ebd575086610eba61140d565b11155b1515610ec857600080fd5b8460ff16601b1480610edd57508460ff16601c145b1515610ee857600080fd5b7f7fffffffffffffffffffffffffffffff5d576e7357a4501ddfe92f46681b20a0831115610f1557600080fd5b600854604080517fea2aa0a1be11a07ed86d755c93467f4f82362b452371d1ba94d1715123511acb602080830191909152600160a060020a03808f16838501528d166060830152608082018c905260a082018b905289151560c0808401919091528351808403909101815260e090920192839052815191929182918401908083835b60208310610fb65780518252601f199092019160209182019101610f97565b51815160209384036101000a6000190180199092169116179052604080519290940182900382207f190100000000000000000000000000000000000000000000000000000000000083830152602283019790975260428083019790975283518083039097018752606290910192839052855192945084935085019190508083835b602083106110565780518252601f199092019160209182019101611037565b51815160209384036101000a600019018019909216911617905260408051929094018290038220600080845283830180875282905260ff8d1684870152606084018c9052608084018b905294519098506001965060a080840196509194601f19820194509281900390910191865af11580156110d6573d6000803e3d6000fd5b50505060206040510351600160a060020a03168a600160a060020a03161415156110ff57600080fd5b600160a060020a038a166000908152600960205260409020805460018101909155881461112b57600080fd5b8561113757600061113b565b6000195b600160a060020a03808c166000908152600560209081526040808320938e16835292905220819055905085611171576000611173565b865b600160a060020a03808c166000818152600a60209081526040808320948f1680845294825291829020949094558051858152905192939192600080516020611a5e833981519152929181900390910190a350505050505050505050565b60018054604080516020600284861615610100026000190190941693909304601f8101849004840282018401909252818152929183018282801561078e5780601f106107635761010080835404028352916020019161078e565b60006112368383610d01565b9392505050565b60006112498383611454565b151561125457600080fd5b61125f338484611411565b50600192915050565b611273338383610839565b505050565b611283838383610839565b50505050565b600754600160a060020a031690565b336000908152600560209081526040808320600160a060020a03861684529091528120546112cc908363ffffffff61140016565b336000818152600560209081526040808320600160a060020a038916808552908352928190208590558051948552519193600080516020611a5e833981519152929081900390910190a350600192915050565b600160a060020a03918216600090815260056020908152604080832093909416825291909152205490565b611273823383610839565b600654600160a060020a0316331461136c57600080fd5b610cc78161170a565b600a60209081526000928352604080842090915290825290205481565b336000818152600560209081526040808320600160a060020a03871680855290835281842086905581518681529151939490939092600080516020611a5e833981519152928290030190a350600192915050565b6000903b1190565b6000828211156113fa57fe5b50900390565b818101828110156107d357fe5b4290565b61141a82610e35565b156112735760408051600081526020810190915261143d90849084908490611460565b151561127357600080fd5b60006112368383611298565b60006112368383611788565b600083600160a060020a031663a4c0ed3660e060020a028685856040516024018084600160a060020a0316600160a060020a0316815260200183815260200180602001828103825283818151815260200191508051906020019080838360005b838110156114d85781810151838201526020016114c0565b50505050905090810190601f1680156115055780820380516001836020036101000a031916815260200191505b5060408051601f198184030181529181526020820180517bffffffffffffffffffffffffffffffffffffffffffffffffffffffff167fffffffff00000000000000000000000000000000000000000000000000000000909916989098178852518151919790965086955093509150819050838360005b8381101561159357818101518382015260200161157b565b50505050905090810190601f1680156115c05780820380516001836020036101000a031916815260200191505b509150506000604051808303816000865af1979650505050505050565b600160a060020a03821660009081526003602052604090205481111561160257600080fd5b600160a060020a03821660009081526003602052604090205461162b908263ffffffff6113ee16565b600160a060020a038316600090815260036020526040902055600454611657908263ffffffff6113ee16565b600455604080518281529051600160a060020a038416917fcc16f5dbb4873280815c1ee09dbd06736cffcc184412cf7a71a0fdb75d397ca5919081900360200190a2604080518281529051600091600160a060020a03851691600080516020611a3e8339815191529181900360200190a35050565b80600160a060020a03811615156116e257600080fd5b600160a060020a0383161515611700576116fb82611857565b611273565b6112738383611863565b600160a060020a038116151561171f57600080fd5b600654604051600160a060020a038084169216907f8be0079c531659141344cd1fd0a4f28419497f9722a3daafe3b4186f6b6457e090600090a36006805473ffffffffffffffffffffffffffffffffffffffff1916600160a060020a0392909216919091179055565b336000908152600360205260408120548211156117a457600080fd5b600160a060020a03831615156117b957600080fd5b336000908152600360205260409020546117d9908363ffffffff6113ee16565b3360009081526003602052604080822092909255600160a060020a0385168152205461180b908363ffffffff61140016565b600160a060020a038416600081815260036020908152604091829020939093558051858152905191923392600080516020611a3e8339815191529281900390910190a350600192915050565b3031610dff8282611910565b604080517f70a0823100000000000000000000000000000000000000000000000000000000815230600482015290518391600091600160a060020a038416916370a0823191602480830192602092919082900301818787803b1580156118c857600080fd5b505af11580156118dc573d6000803e3d6000fd5b505050506040513d60208110156118f257600080fd5b50519050611283600160a060020a038516848363ffffffff61197816565b604051600160a060020a0383169082156108fc029083906000818181858888f193505050501515610dff578082611945611a0d565b600160a060020a039091168152604051908190036020019082f080158015611971573d6000803e3d6000fd5b5050505050565b82600160a060020a031663a9059cbb83836040518363ffffffff1660e060020a0281526004018083600160a060020a0316600160a060020a0316815260200182815260200192505050600060405180830381600087803b1580156119db57600080fd5b505af11580156119ef573d6000803e3d6000fd5b505050503d156112735760206000803e600051151561127357600080fd5b604051602180611a1d833901905600608060405260405160208060218339810160405251600160a060020a038116ff00ddf252ad1be2c89b69c2b068fc378daa952ba7f163c4a11628f55a4df523b3ef8c5be1e5ebec7d5bd14f71427d1e84f3dd0314c0f7b2291e5b200ac8c7c3b925a165627a7a723058202868d22f1d55ff8de23e437047d596d9719a8126999958de569af1ac09beb8460029",
  "source": "pragma solidity 0.4.24;\n\nimport \"./ERC677BridgeToken.sol\";\n\ncontract PermittableToken is ERC677BridgeToken {\n    string public constant version = \"1\";\n\n    // EIP712 niceties\n    bytes32 public DOMAIN_SEPARATOR;\n    // bytes32 public constant PERMIT_TYPEHASH = keccak256(\"Permit(address holder,address spender,uint256 nonce,uint256 expiry,bool allowed)\");\n    bytes32 public constant PERMIT_TYPEHASH = 0xea2aa0a1be11a07ed86d755c93467f4f82362b452371d1ba94d1715123511acb;\n\n    mapping(address => uint256) public nonces;\n    mapping(address => mapping(address => uint256)) public expirations;\n\n    constructor(string memory _name, string memory _symbol, uint8 _decimals, uint256 _chainId)\n        public\n        ERC677BridgeToken(_name, _symbol, _decimals)\n    {\n        require(_chainId != 0);\n        DOMAIN_SEPARATOR = keccak256(\n            abi.encode(\n                keccak256(\"EIP712Domain(string name,string version,uint256 chainId,address verifyingContract)\"),\n                keccak256(bytes(_name)),\n                keccak256(bytes(version)),\n                _chainId,\n                address(this)\n            )\n        );\n    }\n\n    /// @dev transferFrom in this contract works in a slightly different form than the generic\n    /// transferFrom function. This contract allows for \"unlimited approval\".\n    /// Should the user approve an address for the maximum uint256 value,\n    /// then that address will have unlimited approval until told otherwise.\n    /// @param _sender The address of the sender.\n    /// @param _recipient The address of the recipient.\n    /// @param _amount The value to transfer.\n    /// @return Success status.\n    function transferFrom(address _sender, address _recipient, uint256 _amount) public returns (bool) {\n        require(_sender != address(0));\n        require(_recipient != address(0));\n\n        balances[_sender] = balances[_sender].sub(_amount);\n        balances[_recipient] = balances[_recipient].add(_amount);\n        emit Transfer(_sender, _recipient, _amount);\n\n        if (_sender != msg.sender) {\n            uint256 allowedAmount = allowance(_sender, msg.sender);\n\n            if (allowedAmount != uint256(-1)) {\n                // If allowance is limited, adjust it.\n                // In this case `transferFrom` works like the generic\n                allowed[_sender][msg.sender] = allowedAmount.sub(_amount);\n                emit Approval(_sender, msg.sender, allowed[_sender][msg.sender]);\n            } else {\n                // If allowance is unlimited by `permit`, `approve`, or `increaseAllowance`\n                // function, don't adjust it. But the expiration date must be empty or in the future\n                require(expirations[_sender][msg.sender] == 0 || expirations[_sender][msg.sender] >= _now());\n            }\n        } else {\n            // If `_sender` is `msg.sender`,\n            // the function works just like `transfer()`\n        }\n\n        callAfterTransfer(_sender, _recipient, _amount);\n        return true;\n    }\n\n    /// @dev Approve the passed address to spend the specified amount of tokens on behalf of msg.sender.\n    /// @param _to The address which will spend the funds.\n    /// @param _value The amount of tokens to be spent.\n    function approve(address _to, uint256 _value) public returns (bool result) {\n        result = super.approve(_to, _value);\n        if (_value == uint256(-1)) {\n            delete expirations[msg.sender][_to];\n        }\n    }\n\n    /// @dev Atomically increases the allowance granted to spender by the caller.\n    /// @param _to The address which will spend the funds.\n    /// @param _addedValue The amount of tokens to increase the allowance by.\n    function increaseAllowance(address _to, uint256 _addedValue) public returns (bool result) {\n        result = super.increaseAllowance(_to, _addedValue);\n        if (allowed[msg.sender][_to] == uint256(-1)) {\n            delete expirations[msg.sender][_to];\n        }\n    }\n\n    /// @dev An alias for `transfer` function.\n    /// @param _to The address of the recipient.\n    /// @param _amount The value to transfer.\n    function push(address _to, uint256 _amount) public {\n        transferFrom(msg.sender, _to, _amount);\n    }\n\n    /// @dev Makes a request to transfer the specified amount\n    /// from the specified address to the caller's address.\n    /// @param _from The address of the holder.\n    /// @param _amount The value to transfer.\n    function pull(address _from, uint256 _amount) public {\n        transferFrom(_from, msg.sender, _amount);\n    }\n\n    /// @dev An alias for `transferFrom` function.\n    /// @param _from The address of the sender.\n    /// @param _to The address of the recipient.\n    /// @param _amount The value to transfer.\n    function move(address _from, address _to, uint256 _amount) public {\n        transferFrom(_from, _to, _amount);\n    }\n\n    /// @dev Allows to spend holder's unlimited amount by the specified spender.\n    /// The function can be called by anyone, but requires having allowance parameters\n    /// signed by the holder according to EIP712.\n    /// @param _holder The holder's address.\n    /// @param _spender The spender's address.\n    /// @param _nonce The nonce taken from `nonces(_holder)` public getter.\n    /// @param _expiry The allowance expiration date (unix timestamp in UTC).\n    /// Can be zero for no expiration. Forced to zero if `_allowed` is `false`.\n    /// Note that timestamps are not precise, malicious miner/validator can manipulate them to some extend.\n    /// Assume that there can be a 900 seconds time delta between the desired timestamp and the actual expiration.\n    /// @param _allowed True to enable unlimited allowance for the spender by the holder. False to disable.\n    /// @param _v A final byte of signature (ECDSA component).\n    /// @param _r The first 32 bytes of signature (ECDSA component).\n    /// @param _s The second 32 bytes of signature (ECDSA component).\n    function permit(\n        address _holder,\n        address _spender,\n        uint256 _nonce,\n        uint256 _expiry,\n        bool _allowed,\n        uint8 _v,\n        bytes32 _r,\n        bytes32 _s\n    ) external {\n        require(_holder != address(0));\n        require(_spender != address(0));\n        require(_expiry == 0 || _now() <= _expiry);\n\n        require(_v == 27 || _v == 28);\n        require(uint256(_s) <= 0x7FFFFFFFFFFFFFFFFFFFFFFFFFFFFFFF5D576E7357A4501DDFE92F46681B20A0);\n\n        bytes32 digest = keccak256(\n            abi.encodePacked(\n                \"\\x19\\x01\",\n                DOMAIN_SEPARATOR,\n                keccak256(abi.encode(PERMIT_TYPEHASH, _holder, _spender, _nonce, _expiry, _allowed))\n            )\n        );\n\n        require(_holder == ecrecover(digest, _v, _r, _s));\n        require(_nonce == nonces[_holder]++);\n\n        uint256 amount = _allowed ? uint256(-1) : 0;\n\n        allowed[_holder][_spender] = amount;\n        expirations[_holder][_spender] = _allowed ? _expiry : 0;\n\n        emit Approval(_holder, _spender, amount);\n    }\n\n    function _now() internal view returns (uint256) {\n        return now;\n    }\n}\n",
  "sourcePath": "PermittableToken.sol",
  "compiler": {
    "name": "solc",
    "version": "0.4.24+commit.e67f0147.Emscripten.clang"
  },
  "schemaVersion": "3.0.18",
  "updatedAt": "2020-11-09T07:32:38.700Z",
  "devdoc": {
    "methods": {
      "allowance(address,address)": {
        "details": "Function to check the amount of tokens that an owner allowed to a spender.",
        "params": {
          "_owner": "address The address which owns the funds.",
          "_spender": "address The address which will spend the funds."
        },
        "return": "A uint256 specifying the amount of tokens still available for the spender."
      },
      "approve(address,uint256)": {
        "details": "Approve the passed address to spend the specified amount of tokens on behalf of msg.sender.",
        "params": {
          "_to": "The address which will spend the funds.",
          "_value": "The amount of tokens to be spent."
        }
      },
      "balanceOf(address)": {
        "details": "Gets the balance of the specified address.",
        "params": {
          "_owner": "The address to query the the balance of."
        },
        "return": "An uint256 representing the amount owned by the passed address."
      },
      "burn(uint256)": {
        "details": "Burns a specific amount of tokens.",
        "params": {
          "_value": "The amount of token to be burned."
        }
      },
      "claimTokens(address,address)": {
        "details": "Withdraws the erc20 tokens or native coins from this contract.",
        "params": {
          "_to": "address of the tokens/coins receiver.",
          "_token": "address of the claimed token or address(0) for native coins."
        }
      },
      "decreaseApproval(address,uint256)": {
        "details": "Decrease the amount of tokens that an owner allowed to a spender. approve should be called when allowed[_spender] == 0. To decrement allowed value is better to use this function to avoid 2 calls (and wait until the first transaction is mined) From MonolithDAO Token.sol",
        "params": {
          "_spender": "The address which will spend the funds.",
          "_subtractedValue": "The amount of tokens to decrease the allowance by."
        }
      },
      "increaseAllowance(address,uint256)": {
        "details": "Atomically increases the allowance granted to spender by the caller.",
        "params": {
          "_addedValue": "The amount of tokens to increase the allowance by.",
          "_to": "The address which will spend the funds."
        }
      },
      "increaseApproval(address,uint256)": {
        "details": "Increase the amount of tokens that an owner allowed to a spender. approve should be called when allowed[_spender] == 0. To increment allowed value is better to use this function to avoid 2 calls (and wait until the first transaction is mined) From MonolithDAO Token.sol",
        "params": {
          "_addedValue": "The amount of tokens to increase the allowance by.",
          "_spender": "The address which will spend the funds."
        }
      },
      "mint(address,uint256)": {
        "details": "Function to mint tokens",
        "params": {
          "_amount": "The amount of tokens to mint.",
          "_to": "The address that will receive the minted tokens."
        },
        "return": "A boolean that indicates if the operation was successful."
      },
      "move(address,address,uint256)": {
        "details": "An alias for `transferFrom` function.",
        "params": {
          "_amount": "The value to transfer.",
          "_from": "The address of the sender.",
          "_to": "The address of the recipient."
        }
      },
      "permit(address,address,uint256,uint256,bool,uint8,bytes32,bytes32)": {
        "details": "Allows to spend holder's unlimited amount by the specified spender. The function can be called by anyone, but requires having allowance parameters signed by the holder according to EIP712.",
        "params": {
          "_allowed": "True to enable unlimited allowance for the spender by the holder. False to disable.",
          "_expiry": "The allowance expiration date (unix timestamp in UTC). Can be zero for no expiration. Forced to zero if `_allowed` is `false`. Note that timestamps are not precise, malicious miner/validator can manipulate them to some extend. Assume that there can be a 900 seconds time delta between the desired timestamp and the actual expiration.",
          "_holder": "The holder's address.",
          "_nonce": "The nonce taken from `nonces(_holder)` public getter.",
          "_r": "The first 32 bytes of signature (ECDSA component).",
          "_s": "The second 32 bytes of signature (ECDSA component).",
          "_spender": "The spender's address.",
          "_v": "A final byte of signature (ECDSA component)."
        }
      },
      "pull(address,uint256)": {
        "details": "Makes a request to transfer the specified amount from the specified address to the caller's address.",
        "params": {
          "_amount": "The value to transfer.",
          "_from": "The address of the holder."
        }
      },
      "push(address,uint256)": {
        "details": "An alias for `transfer` function.",
        "params": {
          "_amount": "The value to transfer.",
          "_to": "The address of the recipient."
        }
      },
      "totalSupply()": {
        "details": "Total number of tokens in existence"
      },
      "transferFrom(address,address,uint256)": {
        "details": "transferFrom in this contract works in a slightly different form than the generic transferFrom function. This contract allows for \"unlimited approval\". Should the user approve an address for the maximum uint256 value, then that address will have unlimited approval until told otherwise.",
        "params": {
          "_amount": "The value to transfer.",
          "_recipient": "The address of the recipient.",
          "_sender": "The address of the sender."
        },
        "return": "Success status."
      },
      "transferOwnership(address)": {
        "details": "Allows the current owner to transfer control of the contract to a newOwner.",
        "params": {
          "_newOwner": "The address to transfer ownership to."
        }
      }
    }
  },
  "userdoc": {
    "methods": {}
  }
}